{
  "contractName": "Nike",
  "abi": [
    {
      "inputs": [],
      "stateMutability": "nonpayable",
      "type": "constructor"
    },
    {
      "anonymous": false,
      "inputs": [
        {
          "indexed": true,
          "internalType": "address",
          "name": "owner",
          "type": "address"
        },
        {
          "indexed": true,
          "internalType": "address",
          "name": "approved",
          "type": "address"
        },
        {
          "indexed": true,
          "internalType": "uint256",
          "name": "tokenId",
          "type": "uint256"
        }
      ],
      "name": "Approval",
      "type": "event"
    },
    {
      "anonymous": false,
      "inputs": [
        {
          "indexed": true,
          "internalType": "address",
          "name": "owner",
          "type": "address"
        },
        {
          "indexed": true,
          "internalType": "address",
          "name": "operator",
          "type": "address"
        },
        {
          "indexed": false,
          "internalType": "bool",
          "name": "approved",
          "type": "bool"
        }
      ],
      "name": "ApprovalForAll",
      "type": "event"
    },
    {
      "anonymous": false,
      "inputs": [
        {
          "indexed": true,
          "internalType": "address",
          "name": "from",
          "type": "address"
        },
        {
          "indexed": true,
          "internalType": "address",
          "name": "to",
          "type": "address"
        },
        {
          "indexed": true,
          "internalType": "uint256",
          "name": "tokenId",
          "type": "uint256"
        }
      ],
      "name": "Transfer",
      "type": "event"
    },
    {
      "inputs": [
        {
          "internalType": "address",
          "name": "material_address",
          "type": "address"
        }
      ],
      "name": "addMaterial",
      "outputs": [],
      "stateMutability": "nonpayable",
      "type": "function"
    },
    {
      "inputs": [
        {
          "internalType": "uint256",
          "name": "amount",
          "type": "uint256"
        },
        {
          "internalType": "uint256",
          "name": "product_id",
          "type": "uint256"
        }
      ],
      "name": "addMoreStock",
      "outputs": [],
      "stateMutability": "nonpayable",
      "type": "function"
    },
    {
      "inputs": [
        {
          "internalType": "address",
          "name": "to",
          "type": "address"
        },
        {
          "internalType": "uint256",
          "name": "tokenId",
          "type": "uint256"
        }
      ],
      "name": "approve",
      "outputs": [],
      "stateMutability": "nonpayable",
      "type": "function"
    },
    {
      "inputs": [
        {
          "internalType": "address",
          "name": "owner",
          "type": "address"
        }
      ],
      "name": "balanceOf",
      "outputs": [
        {
          "internalType": "uint256",
          "name": "",
          "type": "uint256"
        }
      ],
      "stateMutability": "view",
      "type": "function",
      "constant": true
    },
    {
      "inputs": [
        {
          "internalType": "string",
          "name": "name",
          "type": "string"
        },
        {
          "internalType": "uint256[]",
          "name": "materials_array",
          "type": "uint256[]"
        },
        {
          "internalType": "uint256[]",
          "name": "amounts",
          "type": "uint256[]"
        }
      ],
      "name": "createProduct",
      "outputs": [],
      "stateMutability": "nonpayable",
      "type": "function"
    },
    {
      "inputs": [
        {
          "internalType": "uint256",
          "name": "amount",
          "type": "uint256"
        },
        {
          "internalType": "uint256[]",
          "name": "materials_array",
          "type": "uint256[]"
        },
        {
          "internalType": "uint256[]",
          "name": "amounts",
          "type": "uint256[]"
        },
        {
          "internalType": "uint256",
          "name": "product_id",
          "type": "uint256"
        }
      ],
      "name": "customMint",
      "outputs": [],
      "stateMutability": "nonpayable",
      "type": "function"
    },
    {
      "inputs": [],
      "name": "data_signer",
      "outputs": [
        {
          "internalType": "address",
          "name": "",
          "type": "address"
        }
      ],
      "stateMutability": "view",
      "type": "function",
      "constant": true
    },
    {
      "inputs": [
        {
          "internalType": "uint256",
          "name": "tokenId",
          "type": "uint256"
        }
      ],
      "name": "getApproved",
      "outputs": [
        {
          "internalType": "address",
          "name": "",
          "type": "address"
        }
      ],
      "stateMutability": "view",
      "type": "function",
      "constant": true
    },
    {
      "inputs": [
        {
          "internalType": "address",
          "name": "owner",
          "type": "address"
        },
        {
          "internalType": "address",
          "name": "operator",
          "type": "address"
        }
      ],
      "name": "isApprovedForAll",
      "outputs": [
        {
          "internalType": "bool",
          "name": "",
          "type": "bool"
        }
      ],
      "stateMutability": "view",
      "type": "function",
      "constant": true
    },
    {
      "inputs": [
        {
          "internalType": "uint256",
          "name": "",
          "type": "uint256"
        }
      ],
      "name": "material_addresses",
      "outputs": [
        {
          "internalType": "address",
          "name": "",
          "type": "address"
        }
      ],
      "stateMutability": "view",
      "type": "function",
      "constant": true
    },
    {
      "inputs": [],
      "name": "materials",
      "outputs": [
        {
          "internalType": "uint256",
          "name": "",
          "type": "uint256"
        }
      ],
      "stateMutability": "view",
      "type": "function",
      "constant": true
    },
    {
      "inputs": [
        {
          "internalType": "uint256",
          "name": "",
          "type": "uint256"
        }
      ],
      "name": "metadata",
      "outputs": [
        {
          "internalType": "string",
          "name": "",
          "type": "string"
        }
      ],
      "stateMutability": "view",
      "type": "function",
      "constant": true
    },
    {
      "inputs": [],
      "name": "minted",
      "outputs": [
        {
          "internalType": "uint256",
          "name": "",
          "type": "uint256"
        }
      ],
      "stateMutability": "view",
      "type": "function",
      "constant": true
    },
    {
      "inputs": [],
      "name": "name",
      "outputs": [
        {
          "internalType": "string",
          "name": "",
          "type": "string"
        }
      ],
      "stateMutability": "view",
      "type": "function",
      "constant": true
    },
    {
      "inputs": [
        {
          "internalType": "uint256",
          "name": "tokenId",
          "type": "uint256"
        }
      ],
      "name": "ownerOf",
      "outputs": [
        {
          "internalType": "address",
          "name": "",
          "type": "address"
        }
      ],
      "stateMutability": "view",
      "type": "function",
      "constant": true
    },
    {
      "inputs": [
        {
          "internalType": "uint256",
          "name": "",
          "type": "uint256"
        },
        {
          "internalType": "uint256",
          "name": "",
          "type": "uint256"
        }
      ],
      "name": "product_amounts",
      "outputs": [
        {
          "internalType": "uint256",
          "name": "",
          "type": "uint256"
        }
      ],
      "stateMutability": "view",
      "type": "function",
      "constant": true
    },
    {
      "inputs": [
        {
          "internalType": "uint256",
          "name": "",
          "type": "uint256"
        }
      ],
      "name": "product_ids",
      "outputs": [
        {
          "internalType": "uint256",
          "name": "",
          "type": "uint256"
        }
      ],
      "stateMutability": "view",
      "type": "function",
      "constant": true
    },
    {
      "inputs": [
        {
          "internalType": "uint256",
          "name": "",
          "type": "uint256"
        },
        {
          "internalType": "uint256",
          "name": "",
          "type": "uint256"
        }
      ],
      "name": "product_materials",
      "outputs": [
        {
          "internalType": "uint256",
          "name": "",
          "type": "uint256"
        }
      ],
      "stateMutability": "view",
      "type": "function",
      "constant": true
    },
    {
      "inputs": [
        {
          "internalType": "uint256",
          "name": "",
          "type": "uint256"
        }
      ],
      "name": "product_names",
      "outputs": [
        {
          "internalType": "string",
          "name": "",
          "type": "string"
        }
      ],
      "stateMutability": "view",
      "type": "function",
      "constant": true
    },
    {
      "inputs": [],
      "name": "products",
      "outputs": [
        {
          "internalType": "uint256",
          "name": "",
          "type": "uint256"
        }
      ],
      "stateMutability": "view",
      "type": "function",
      "constant": true
    },
    {
      "inputs": [
        {
          "internalType": "address",
          "name": "from",
          "type": "address"
        },
        {
          "internalType": "address",
          "name": "to",
          "type": "address"
        },
        {
          "internalType": "uint256",
          "name": "tokenId",
          "type": "uint256"
        }
      ],
      "name": "safeTransferFrom",
      "outputs": [],
      "stateMutability": "nonpayable",
      "type": "function"
    },
    {
      "inputs": [
        {
          "internalType": "address",
          "name": "from",
          "type": "address"
        },
        {
          "internalType": "address",
          "name": "to",
          "type": "address"
        },
        {
          "internalType": "uint256",
          "name": "tokenId",
          "type": "uint256"
        },
        {
          "internalType": "bytes",
          "name": "data",
          "type": "bytes"
        }
      ],
      "name": "safeTransferFrom",
      "outputs": [],
      "stateMutability": "nonpayable",
      "type": "function"
    },
    {
      "inputs": [
        {
          "internalType": "address",
          "name": "operator",
          "type": "address"
        },
        {
          "internalType": "bool",
          "name": "approved",
          "type": "bool"
        }
      ],
      "name": "setApprovalForAll",
      "outputs": [],
      "stateMutability": "nonpayable",
      "type": "function"
    },
    {
      "inputs": [
        {
          "internalType": "uint256",
          "name": "product_id",
          "type": "uint256"
        },
        {
          "internalType": "string",
          "name": "url",
          "type": "string"
        }
      ],
      "name": "setMetadata",
      "outputs": [],
      "stateMutability": "nonpayable",
      "type": "function"
    },
    {
      "inputs": [
        {
          "internalType": "address",
          "name": "signer",
          "type": "address"
        }
      ],
      "name": "setSignerAddress",
      "outputs": [],
      "stateMutability": "nonpayable",
      "type": "function"
    },
    {
      "inputs": [
        {
          "internalType": "bytes4",
          "name": "interfaceId",
          "type": "bytes4"
        }
      ],
      "name": "supportsInterface",
      "outputs": [
        {
          "internalType": "bool",
          "name": "",
          "type": "bool"
        }
      ],
      "stateMutability": "view",
      "type": "function",
      "constant": true
    },
    {
      "inputs": [],
      "name": "symbol",
      "outputs": [
        {
          "internalType": "string",
          "name": "",
          "type": "string"
        }
      ],
      "stateMutability": "view",
      "type": "function",
      "constant": true
    },
    {
      "inputs": [
        {
          "internalType": "string",
          "name": "name",
          "type": "string"
        },
        {
          "internalType": "uint256[]",
          "name": "materials_array",
          "type": "uint256[]"
        },
        {
          "internalType": "uint256[]",
          "name": "amounts",
          "type": "uint256[]"
        },
        {
          "internalType": "uint256",
          "name": "amount",
          "type": "uint256"
        }
      ],
      "name": "tailor",
      "outputs": [],
      "stateMutability": "nonpayable",
      "type": "function"
    },
    {
      "inputs": [
        {
          "internalType": "uint256",
          "name": "tokenId",
          "type": "uint256"
        }
      ],
      "name": "tokenURI",
      "outputs": [
        {
          "internalType": "string",
          "name": "",
          "type": "string"
        }
      ],
      "stateMutability": "view",
      "type": "function",
      "constant": true
    },
    {
      "inputs": [
        {
          "internalType": "address",
          "name": "from",
          "type": "address"
        },
        {
          "internalType": "address",
          "name": "to",
          "type": "address"
        },
        {
          "internalType": "uint256",
          "name": "tokenId",
          "type": "uint256"
        }
      ],
      "name": "transferFrom",
      "outputs": [],
      "stateMutability": "nonpayable",
      "type": "function"
    },
    {
      "inputs": [
        {
          "internalType": "string",
          "name": "nft_id",
          "type": "string"
        },
        {
          "internalType": "uint8",
          "name": "v",
          "type": "uint8"
        },
        {
          "internalType": "bytes32",
          "name": "r",
          "type": "bytes32"
        },
        {
          "internalType": "bytes32",
          "name": "s",
          "type": "bytes32"
        }
      ],
      "name": "verifySignature",
      "outputs": [
        {
          "internalType": "address",
          "name": "signer",
          "type": "address"
        }
      ],
      "stateMutability": "pure",
      "type": "function",
      "constant": true
    }
  ],
  "bytecode": "0x60806040526000600655600060075560006008553480156200002057600080fd5b506040518060400160405280600481526020017f4e494b45000000000000000000000000000000000000000000000000000000008152506040518060400160405280600381526020017f4e4b45000000000000000000000000000000000000000000000000000000000081525081818160009081620000a0919062000337565b508060019081620000b2919062000337565b50505050506200041e565b600081519050919050565b7f4e487b7100000000000000000000000000000000000000000000000000000000600052604160045260246000fd5b7f4e487b7100000000000000000000000000000000000000000000000000000000600052602260045260246000fd5b600060028204905060018216806200013f57607f821691505b602082108103620001555762000154620000f7565b5b50919050565b60008190508160005260206000209050919050565b60006020601f8301049050919050565b600082821b905092915050565b600060088302620001bf7fffffffffffffffffffffffffffffffffffffffffffffffffffffffffffffffff8262000180565b620001cb868362000180565b95508019841693508086168417925050509392505050565b6000819050919050565b6000819050919050565b600062000218620002126200020c84620001e3565b620001ed565b620001e3565b9050919050565b6000819050919050565b6200023483620001f7565b6200024c62000243826200021f565b8484546200018d565b825550505050565b600090565b6200026362000254565b6200027081848462000229565b505050565b5b8181101562000298576200028c60008262000259565b60018101905062000276565b5050565b601f821115620002e757620002b1816200015b565b620002bc8462000170565b81016020851015620002cc578190505b620002e4620002db8562000170565b83018262000275565b50505b505050565b600082821c905092915050565b60006200030c60001984600802620002ec565b1980831691505092915050565b6000620003278383620002f9565b9150826002028217905092915050565b6200034282620000bd565b67ffffffffffffffff8111156200035e576200035d620000c8565b5b6200036a825462000126565b620003778282856200029c565b600060209050601f831160018114620003af57600084156200039a578287015190505b620003a6858262000319565b86555062000416565b601f198416620003bf866200015b565b60005b82811015620003e957848901518255600182019150602085019450602081019050620003c2565b8683101562000409578489015162000405601f891682620002f9565b8355505b6001600288020188555050505b505050505050565b613921806200042e6000396000f3fe608060405234801561001057600080fd5b50600436106101e55760003560e01c80636e3173201161010f578063b6b7ae59116100a2578063e3684e3911610071578063e3684e391461059e578063e985e9c5146105ce578063ea621daf146105fe578063f9d0ce2f1461062e576101e5565b8063b6b7ae5914610516578063b88d4fde14610534578063c71e261f14610550578063c87b56dd1461056e576101e5565b806370d4bbe7116100de57806370d4bbe71461049057806395d89b41146104c0578063a22cb465146104de578063b1eaba74146104fa576101e5565b80636e317320146103e4578063705439ea1461041457806370a082311461044457806370c9419d14610474576101e5565b806342842e0e11610187578063593aa28311610156578063593aa2831461034a5780636352211e1461036657806365e827041461039657806366da3be6146103b4576101e5565b806342842e0e146102d857806347bb9c24146102f45780634f02c4201461031057806356f9c4bf1461032e576101e5565b8063081812fc116101c3578063081812fc14610254578063095ea7b3146102845780631fc5b83e146102a057806323b872dd146102bc576101e5565b806301ffc9a7146101ea578063046dc1661461021a57806306fdde0314610236575b600080fd5b61020460048036038101906101ff9190612271565b61065e565b60405161021191906122b9565b60405180910390f35b610234600480360381019061022f9190612332565b610740565b005b61023e610784565b60405161024b91906123ef565b60405180910390f35b61026e60048036038101906102699190612447565b610816565b60405161027b9190612483565b60405180910390f35b61029e6004803603810190610299919061249e565b61085c565b005b6102ba60048036038101906102b59190612332565b610973565b005b6102d660048036038101906102d191906124de565b6109f1565b005b6102f260048036038101906102ed91906124de565b610a51565b005b61030e6004803603810190610309919061272e565b610a71565b005b610318610a96565b60405161032591906127f8565b60405180910390f35b61034860048036038101906103439190612813565b610a9c565b005b610364600480360381019061035f91906128b2565b610c18565b005b610380600480360381019061037b9190612447565b610c3d565b60405161038d9190612483565b60405180910390f35b61039e610cc3565b6040516103ab9190612483565b60405180910390f35b6103ce60048036038101906103c99190612447565b610ce9565b6040516103db9190612483565b60405180910390f35b6103fe60048036038101906103f9919061290e565b610d28565b60405161040b91906127f8565b60405180910390f35b61042e600480360381019061042991906129bd565b610d59565b60405161043b9190612483565b60405180910390f35b61045e60048036038101906104599190612332565b610e09565b60405161046b91906127f8565b60405180910390f35b61048e6004803603810190610489919061290e565b610ec0565b005b6104aa60048036038101906104a5919061290e565b610f9e565b6040516104b791906127f8565b60405180910390f35b6104c8610fcf565b6040516104d591906123ef565b60405180910390f35b6104f860048036038101906104f39190612a6c565b611061565b005b610514600480360381019061050f9190612aac565b611077565b005b61051e61110b565b60405161052b91906127f8565b60405180910390f35b61054e60048036038101906105499190612bf4565b611111565b005b610558611173565b60405161056591906127f8565b60405180910390f35b61058860048036038101906105839190612447565b611179565b60405161059591906123ef565b60405180910390f35b6105b860048036038101906105b39190612447565b6111e1565b6040516105c591906123ef565b60405180910390f35b6105e860048036038101906105e39190612c77565b611281565b6040516105f591906122b9565b60405180910390f35b61061860048036038101906106139190612447565b611315565b60405161062591906123ef565b60405180910390f35b61064860048036038101906106439190612447565b6113b5565b60405161065591906127f8565b60405180910390f35b60007f80ac58cd000000000000000000000000000000000000000000000000000000007bffffffffffffffffffffffffffffffffffffffffffffffffffffffff1916827bffffffffffffffffffffffffffffffffffffffffffffffffffffffff1916148061072957507f5b5e139f000000000000000000000000000000000000000000000000000000007bffffffffffffffffffffffffffffffffffffffffffffffffffffffff1916827bffffffffffffffffffffffffffffffffffffffffffffffffffffffff1916145b806107395750610738826113cd565b5b9050919050565b80600960006101000a81548173ffffffffffffffffffffffffffffffffffffffff021916908373ffffffffffffffffffffffffffffffffffffffff16021790555050565b60606000805461079390612ce6565b80601f01602080910402602001604051908101604052809291908181526020018280546107bf90612ce6565b801561080c5780601f106107e15761010080835404028352916020019161080c565b820191906000526020600020905b8154815290600101906020018083116107ef57829003601f168201915b5050505050905090565b600061082182611437565b6004600083815260200190815260200160002060009054906101000a900473ffffffffffffffffffffffffffffffffffffffff169050919050565b600061086782610c3d565b90508073ffffffffffffffffffffffffffffffffffffffff168373ffffffffffffffffffffffffffffffffffffffff16036108d7576040517f08c379a00000000000000000000000000000000000000000000000000000000081526004016108ce90612d89565b60405180910390fd5b8073ffffffffffffffffffffffffffffffffffffffff166108f6611482565b73ffffffffffffffffffffffffffffffffffffffff16148061092557506109248161091f611482565b611281565b5b610964576040517f08c379a000000000000000000000000000000000000000000000000000000000815260040161095b90612e1b565b60405180910390fd5b61096e838361148a565b505050565b600a819080600181540180825580915050600190039060005260206000200160009091909190916101000a81548173ffffffffffffffffffffffffffffffffffffffff021916908373ffffffffffffffffffffffffffffffffffffffff160217905550600860008154809291906109e990612e6a565b919050555050565b610a026109fc611482565b82611543565b610a41576040517f08c379a0000000000000000000000000000000000000000000000000000000008152600401610a3890612f24565b60405180910390fd5b610a4c8383836115d8565b505050565b610a6c83838360405180602001604052806000815250611111565b505050565b60006006549050610a83858585611077565b610a8f82858584610a9c565b5050505050565b60075481565b60005b8351811015610bbe576000600a858381518110610abf57610abe612f44565b5b602002602001015181548110610ad857610ad7612f44565b5b9060005260206000200160009054906101000a900473ffffffffffffffffffffffffffffffffffffffff1690508073ffffffffffffffffffffffffffffffffffffffff1663a9059cbb600088878681518110610b3757610b36612f44565b5b6020026020010151610b499190612f73565b6040518363ffffffff1660e01b8152600401610b66929190612fb5565b6020604051808303816000875af1158015610b85573d6000803e3d6000fd5b505050506040513d601f19601f82011682018060405250810190610ba99190612ff3565b50508080610bb690612e6a565b915050610a9f565b50610bc930856118d1565b600060075490505b84600754610bdf9190613020565b811015610c115781600b6000838152602001908152602001600020819055508080610c0990612e6a565b915050610bd1565b5050505050565b80600d60008481526020019081526020016000209081610c389190613200565b505050565b600080610c49836118ef565b9050600073ffffffffffffffffffffffffffffffffffffffff168173ffffffffffffffffffffffffffffffffffffffff1603610cba576040517f08c379a0000000000000000000000000000000000000000000000000000000008152600401610cb19061331e565b60405180910390fd5b80915050919050565b600960009054906101000a900473ffffffffffffffffffffffffffffffffffffffff1681565b600a8181548110610cf957600080fd5b906000526020600020016000915054906101000a900473ffffffffffffffffffffffffffffffffffffffff1681565b600e6020528160005260406000208181548110610d4457600080fd5b90600052602060002001600091509150505481565b600080610d66865161192c565b604051602001610d7691906133a0565b60405160208183030381529060405286604051602001610d979291906133c6565b60405160208183030381529060405280519060200120905060018186868660405160008152602001604052604051610dd29493929190613408565b6020604051602081039080840390855afa158015610df4573d6000803e3d6000fd5b50505060206040510351915050949350505050565b60008073ffffffffffffffffffffffffffffffffffffffff168273ffffffffffffffffffffffffffffffffffffffff1603610e79576040517f08c379a0000000000000000000000000000000000000000000000000000000008152600401610e70906134bf565b60405180910390fd5b600360008373ffffffffffffffffffffffffffffffffffffffff1673ffffffffffffffffffffffffffffffffffffffff168152602001908152602001600020549050919050565b6000600e6000838152602001908152602001600020805480602002602001604051908101604052809291908181526020018280548015610f1f57602002820191906000526020600020905b815481526020019060010190808311610f0b575b505050505090506000600f6000848152602001908152602001600020805480602002602001604051908101604052809291908181526020018280548015610f8557602002820191906000526020600020905b815481526020019060010190808311610f71575b50505050509050610f9884838386610a9c565b50505050565b600f6020528160005260406000208181548110610fba57600080fd5b90600052602060002001600091509150505481565b606060018054610fde90612ce6565b80601f016020809104026020016040519081016040528092919081815260200182805461100a90612ce6565b80156110575780601f1061102c57610100808354040283529160200191611057565b820191906000526020600020905b81548152906001019060200180831161103a57829003601f168201915b5050505050905090565b61107361106c611482565b83836119fa565b5050565b81600e6000600654815260200190815260200160002090805190602001906110a092919061219b565b5080600f6000600654815260200190815260200160002090805190602001906110ca92919061219b565b5082600c6000600654815260200190815260200160002090816110ed9190613200565b506006600081548092919061110190612e6a565b9190505550505050565b60085481565b61112261111c611482565b83611543565b611161576040517f08c379a000000000000000000000000000000000000000000000000000000000815260040161115890612f24565b60405180910390fd5b61116d84848484611b66565b50505050565b60065481565b606061118482611437565b600061118e611bc2565b905060008151116111ae57604051806020016040528060008152506111d9565b806111b88461192c565b6040516020016111c99291906133c6565b6040516020818303038152906040525b915050919050565b600d602052806000526040600020600091509050805461120090612ce6565b80601f016020809104026020016040519081016040528092919081815260200182805461122c90612ce6565b80156112795780601f1061124e57610100808354040283529160200191611279565b820191906000526020600020905b81548152906001019060200180831161125c57829003601f168201915b505050505081565b6000600560008473ffffffffffffffffffffffffffffffffffffffff1673ffffffffffffffffffffffffffffffffffffffff16815260200190815260200160002060008373ffffffffffffffffffffffffffffffffffffffff1673ffffffffffffffffffffffffffffffffffffffff16815260200190815260200160002060009054906101000a900460ff16905092915050565b600c602052806000526040600020600091509050805461133490612ce6565b80601f016020809104026020016040519081016040528092919081815260200182805461136090612ce6565b80156113ad5780601f10611382576101008083540402835291602001916113ad565b820191906000526020600020905b81548152906001019060200180831161139057829003601f168201915b505050505081565b600b6020528060005260406000206000915090505481565b60007f01ffc9a7000000000000000000000000000000000000000000000000000000007bffffffffffffffffffffffffffffffffffffffffffffffffffffffff1916827bffffffffffffffffffffffffffffffffffffffffffffffffffffffff1916149050919050565b61144081611bd9565b61147f576040517f08c379a00000000000000000000000000000000000000000000000000000000081526004016114769061331e565b60405180910390fd5b50565b600033905090565b816004600083815260200190815260200160002060006101000a81548173ffffffffffffffffffffffffffffffffffffffff021916908373ffffffffffffffffffffffffffffffffffffffff160217905550808273ffffffffffffffffffffffffffffffffffffffff166114fd83610c3d565b73ffffffffffffffffffffffffffffffffffffffff167f8c5be1e5ebec7d5bd14f71427d1e84f3dd0314c0f7b2291e5b200ac8c7c3b92560405160405180910390a45050565b60008061154f83610c3d565b90508073ffffffffffffffffffffffffffffffffffffffff168473ffffffffffffffffffffffffffffffffffffffff16148061159157506115908185611281565b5b806115cf57508373ffffffffffffffffffffffffffffffffffffffff166115b784610816565b73ffffffffffffffffffffffffffffffffffffffff16145b91505092915050565b8273ffffffffffffffffffffffffffffffffffffffff166115f882610c3d565b73ffffffffffffffffffffffffffffffffffffffff161461164e576040517f08c379a000000000000000000000000000000000000000000000000000000000815260040161164590613551565b60405180910390fd5b600073ffffffffffffffffffffffffffffffffffffffff168273ffffffffffffffffffffffffffffffffffffffff16036116bd576040517f08c379a00000000000000000000000000000000000000000000000000000000081526004016116b4906135e3565b60405180910390fd5b6116ca8383836001611c1a565b8273ffffffffffffffffffffffffffffffffffffffff166116ea82610c3d565b73ffffffffffffffffffffffffffffffffffffffff1614611740576040517f08c379a000000000000000000000000000000000000000000000000000000000815260040161173790613551565b60405180910390fd5b6004600082815260200190815260200160002060006101000a81549073ffffffffffffffffffffffffffffffffffffffff02191690556001600360008573ffffffffffffffffffffffffffffffffffffffff1673ffffffffffffffffffffffffffffffffffffffff168152602001908152602001600020600082825403925050819055506001600360008473ffffffffffffffffffffffffffffffffffffffff1673ffffffffffffffffffffffffffffffffffffffff16815260200190815260200160002060008282540192505081905550816002600083815260200190815260200160002060006101000a81548173ffffffffffffffffffffffffffffffffffffffff021916908373ffffffffffffffffffffffffffffffffffffffff160217905550808273ffffffffffffffffffffffffffffffffffffffff168473ffffffffffffffffffffffffffffffffffffffff167fddf252ad1be2c89b69c2b068fc378daa952ba7f163c4a11628f55a4df523b3ef60405160405180910390a46118cc8383836001611c20565b505050565b6118eb828260405180602001604052806000815250611c26565b5050565b60006002600083815260200190815260200160002060009054906101000a900473ffffffffffffffffffffffffffffffffffffffff169050919050565b60606000600161193b84611c81565b01905060008167ffffffffffffffff81111561195a5761195961253b565b5b6040519080825280601f01601f19166020018201604052801561198c5781602001600182028036833780820191505090505b509050600082602001820190505b6001156119ef578080600190039150507f3031323334353637383961626364656600000000000000000000000000000000600a86061a8153600a85816119e3576119e2613603565b5b0494506000850361199a575b819350505050919050565b8173ffffffffffffffffffffffffffffffffffffffff168373ffffffffffffffffffffffffffffffffffffffff1603611a68576040517f08c379a0000000000000000000000000000000000000000000000000000000008152600401611a5f9061367e565b60405180910390fd5b80600560008573ffffffffffffffffffffffffffffffffffffffff1673ffffffffffffffffffffffffffffffffffffffff16815260200190815260200160002060008473ffffffffffffffffffffffffffffffffffffffff1673ffffffffffffffffffffffffffffffffffffffff16815260200190815260200160002060006101000a81548160ff0219169083151502179055508173ffffffffffffffffffffffffffffffffffffffff168373ffffffffffffffffffffffffffffffffffffffff167f17307eab39ab6107e8899845ad3d59bd9653f200f220920489ca2b5937696c3183604051611b5991906122b9565b60405180910390a3505050565b611b718484846115d8565b611b7d84848484611dd4565b611bbc576040517f08c379a0000000000000000000000000000000000000000000000000000000008152600401611bb390613710565b60405180910390fd5b50505050565b606060405180602001604052806000815250905090565b60008073ffffffffffffffffffffffffffffffffffffffff16611bfb836118ef565b73ffffffffffffffffffffffffffffffffffffffff1614159050919050565b50505050565b50505050565b611c308383611f5b565b611c3d6000848484611dd4565b611c7c576040517f08c379a0000000000000000000000000000000000000000000000000000000008152600401611c7390613710565b60405180910390fd5b505050565b600080600090507a184f03e93ff9f4daa797ed6e38ed64bf6a1f0100000000000000008310611cdf577a184f03e93ff9f4daa797ed6e38ed64bf6a1f0100000000000000008381611cd557611cd4613603565b5b0492506040810190505b6d04ee2d6d415b85acef81000000008310611d1c576d04ee2d6d415b85acef81000000008381611d1257611d11613603565b5b0492506020810190505b662386f26fc100008310611d4b57662386f26fc100008381611d4157611d40613603565b5b0492506010810190505b6305f5e1008310611d74576305f5e1008381611d6a57611d69613603565b5b0492506008810190505b6127108310611d99576127108381611d8f57611d8e613603565b5b0492506004810190505b60648310611dbc5760648381611db257611db1613603565b5b0492506002810190505b600a8310611dcb576001810190505b80915050919050565b6000611df58473ffffffffffffffffffffffffffffffffffffffff16612178565b15611f4e578373ffffffffffffffffffffffffffffffffffffffff1663150b7a02611e1e611482565b8786866040518563ffffffff1660e01b8152600401611e409493929190613785565b6020604051808303816000875af1925050508015611e7c57506040513d601f19601f82011682018060405250810190611e7991906137e6565b60015b611efe573d8060008114611eac576040519150601f19603f3d011682016040523d82523d6000602084013e611eb1565b606091505b506000815103611ef6576040517f08c379a0000000000000000000000000000000000000000000000000000000008152600401611eed90613710565b60405180910390fd5b805181602001fd5b63150b7a0260e01b7bffffffffffffffffffffffffffffffffffffffffffffffffffffffff1916817bffffffffffffffffffffffffffffffffffffffffffffffffffffffff191614915050611f53565b600190505b949350505050565b600073ffffffffffffffffffffffffffffffffffffffff168273ffffffffffffffffffffffffffffffffffffffff1603611fca576040517f08c379a0000000000000000000000000000000000000000000000000000000008152600401611fc19061385f565b60405180910390fd5b611fd381611bd9565b15612013576040517f08c379a000000000000000000000000000000000000000000000000000000000815260040161200a906138cb565b60405180910390fd5b612021600083836001611c1a565b61202a81611bd9565b1561206a576040517f08c379a0000000000000000000000000000000000000000000000000000000008152600401612061906138cb565b60405180910390fd5b6001600360008473ffffffffffffffffffffffffffffffffffffffff1673ffffffffffffffffffffffffffffffffffffffff16815260200190815260200160002060008282540192505081905550816002600083815260200190815260200160002060006101000a81548173ffffffffffffffffffffffffffffffffffffffff021916908373ffffffffffffffffffffffffffffffffffffffff160217905550808273ffffffffffffffffffffffffffffffffffffffff16600073ffffffffffffffffffffffffffffffffffffffff167fddf252ad1be2c89b69c2b068fc378daa952ba7f163c4a11628f55a4df523b3ef60405160405180910390a4612174600083836001611c20565b5050565b6000808273ffffffffffffffffffffffffffffffffffffffff163b119050919050565b8280548282559060005260206000209081019282156121d7579160200282015b828111156121d65782518255916020019190600101906121bb565b5b5090506121e491906121e8565b5090565b5b808211156122015760008160009055506001016121e9565b5090565b6000604051905090565b600080fd5b600080fd5b60007fffffffff0000000000000000000000000000000000000000000000000000000082169050919050565b61224e81612219565b811461225957600080fd5b50565b60008135905061226b81612245565b92915050565b6000602082840312156122875761228661220f565b5b60006122958482850161225c565b91505092915050565b60008115159050919050565b6122b38161229e565b82525050565b60006020820190506122ce60008301846122aa565b92915050565b600073ffffffffffffffffffffffffffffffffffffffff82169050919050565b60006122ff826122d4565b9050919050565b61230f816122f4565b811461231a57600080fd5b50565b60008135905061232c81612306565b92915050565b6000602082840312156123485761234761220f565b5b60006123568482850161231d565b91505092915050565b600081519050919050565b600082825260208201905092915050565b60005b8381101561239957808201518184015260208101905061237e565b60008484015250505050565b6000601f19601f8301169050919050565b60006123c18261235f565b6123cb818561236a565b93506123db81856020860161237b565b6123e4816123a5565b840191505092915050565b6000602082019050818103600083015261240981846123b6565b905092915050565b6000819050919050565b61242481612411565b811461242f57600080fd5b50565b6000813590506124418161241b565b92915050565b60006020828403121561245d5761245c61220f565b5b600061246b84828501612432565b91505092915050565b61247d816122f4565b82525050565b60006020820190506124986000830184612474565b92915050565b600080604083850312156124b5576124b461220f565b5b60006124c38582860161231d565b92505060206124d485828601612432565b9150509250929050565b6000806000606084860312156124f7576124f661220f565b5b60006125058682870161231d565b93505060206125168682870161231d565b925050604061252786828701612432565b9150509250925092565b600080fd5b600080fd5b7f4e487b7100000000000000000000000000000000000000000000000000000000600052604160045260246000fd5b612573826123a5565b810181811067ffffffffffffffff821117156125925761259161253b565b5b80604052505050565b60006125a5612205565b90506125b1828261256a565b919050565b600067ffffffffffffffff8211156125d1576125d061253b565b5b6125da826123a5565b9050602081019050919050565b82818337600083830152505050565b6000612609612604846125b6565b61259b565b90508281526020810184848401111561262557612624612536565b5b6126308482856125e7565b509392505050565b600082601f83011261264d5761264c612531565b5b813561265d8482602086016125f6565b91505092915050565b600067ffffffffffffffff8211156126815761268061253b565b5b602082029050602081019050919050565b600080fd5b60006126aa6126a584612666565b61259b565b905080838252602082019050602084028301858111156126cd576126cc612692565b5b835b818110156126f657806126e28882612432565b8452602084019350506020810190506126cf565b5050509392505050565b600082601f83011261271557612714612531565b5b8135612725848260208601612697565b91505092915050565b600080600080608085870312156127485761274761220f565b5b600085013567ffffffffffffffff81111561276657612765612214565b5b61277287828801612638565b945050602085013567ffffffffffffffff81111561279357612792612214565b5b61279f87828801612700565b935050604085013567ffffffffffffffff8111156127c0576127bf612214565b5b6127cc87828801612700565b92505060606127dd87828801612432565b91505092959194509250565b6127f281612411565b82525050565b600060208201905061280d60008301846127e9565b92915050565b6000806000806080858703121561282d5761282c61220f565b5b600061283b87828801612432565b945050602085013567ffffffffffffffff81111561285c5761285b612214565b5b61286887828801612700565b935050604085013567ffffffffffffffff81111561288957612888612214565b5b61289587828801612700565b92505060606128a687828801612432565b91505092959194509250565b600080604083850312156128c9576128c861220f565b5b60006128d785828601612432565b925050602083013567ffffffffffffffff8111156128f8576128f7612214565b5b61290485828601612638565b9150509250929050565b600080604083850312156129255761292461220f565b5b600061293385828601612432565b925050602061294485828601612432565b9150509250929050565b600060ff82169050919050565b6129648161294e565b811461296f57600080fd5b50565b6000813590506129818161295b565b92915050565b6000819050919050565b61299a81612987565b81146129a557600080fd5b50565b6000813590506129b781612991565b92915050565b600080600080608085870312156129d7576129d661220f565b5b600085013567ffffffffffffffff8111156129f5576129f4612214565b5b612a0187828801612638565b9450506020612a1287828801612972565b9350506040612a23878288016129a8565b9250506060612a34878288016129a8565b91505092959194509250565b612a498161229e565b8114612a5457600080fd5b50565b600081359050612a6681612a40565b92915050565b60008060408385031215612a8357612a8261220f565b5b6000612a918582860161231d565b9250506020612aa285828601612a57565b9150509250929050565b600080600060608486031215612ac557612ac461220f565b5b600084013567ffffffffffffffff811115612ae357612ae2612214565b5b612aef86828701612638565b935050602084013567ffffffffffffffff811115612b1057612b0f612214565b5b612b1c86828701612700565b925050604084013567ffffffffffffffff811115612b3d57612b3c612214565b5b612b4986828701612700565b9150509250925092565b600067ffffffffffffffff821115612b6e57612b6d61253b565b5b612b77826123a5565b9050602081019050919050565b6000612b97612b9284612b53565b61259b565b905082815260208101848484011115612bb357612bb2612536565b5b612bbe8482856125e7565b509392505050565b600082601f830112612bdb57612bda612531565b5b8135612beb848260208601612b84565b91505092915050565b60008060008060808587031215612c0e57612c0d61220f565b5b6000612c1c8782880161231d565b9450506020612c2d8782880161231d565b9350506040612c3e87828801612432565b925050606085013567ffffffffffffffff811115612c5f57612c5e612214565b5b612c6b87828801612bc6565b91505092959194509250565b60008060408385031215612c8e57612c8d61220f565b5b6000612c9c8582860161231d565b9250506020612cad8582860161231d565b9150509250929050565b7f4e487b7100000000000000000000000000000000000000000000000000000000600052602260045260246000fd5b60006002820490506001821680612cfe57607f821691505b602082108103612d1157612d10612cb7565b5b50919050565b7f4552433732313a20617070726f76616c20746f2063757272656e74206f776e6560008201527f7200000000000000000000000000000000000000000000000000000000000000602082015250565b6000612d7360218361236a565b9150612d7e82612d17565b604082019050919050565b60006020820190508181036000830152612da281612d66565b9050919050565b7f4552433732313a20617070726f76652063616c6c6572206973206e6f7420746f60008201527f6b656e206f776e6572206f7220617070726f76656420666f7220616c6c000000602082015250565b6000612e05603d8361236a565b9150612e1082612da9565b604082019050919050565b60006020820190508181036000830152612e3481612df8565b9050919050565b7f4e487b7100000000000000000000000000000000000000000000000000000000600052601160045260246000fd5b6000612e7582612411565b91507fffffffffffffffffffffffffffffffffffffffffffffffffffffffffffffffff8203612ea757612ea6612e3b565b5b600182019050919050565b7f4552433732313a2063616c6c6572206973206e6f7420746f6b656e206f776e6560008201527f72206f7220617070726f76656400000000000000000000000000000000000000602082015250565b6000612f0e602d8361236a565b9150612f1982612eb2565b604082019050919050565b60006020820190508181036000830152612f3d81612f01565b9050919050565b7f4e487b7100000000000000000000000000000000000000000000000000000000600052603260045260246000fd5b6000612f7e82612411565b9150612f8983612411565b9250828202612f9781612411565b91508282048414831517612fae57612fad612e3b565b5b5092915050565b6000604082019050612fca6000830185612474565b612fd760208301846127e9565b9392505050565b600081519050612fed81612a40565b92915050565b6000602082840312156130095761300861220f565b5b600061301784828501612fde565b91505092915050565b600061302b82612411565b915061303683612411565b925082820190508082111561304e5761304d612e3b565b5b92915050565b60008190508160005260206000209050919050565b60006020601f8301049050919050565b600082821b905092915050565b6000600883026130b67fffffffffffffffffffffffffffffffffffffffffffffffffffffffffffffffff82613079565b6130c08683613079565b95508019841693508086168417925050509392505050565b6000819050919050565b60006130fd6130f86130f384612411565b6130d8565b612411565b9050919050565b6000819050919050565b613117836130e2565b61312b61312382613104565b848454613086565b825550505050565b600090565b613140613133565b61314b81848461310e565b505050565b5b8181101561316f57613164600082613138565b600181019050613151565b5050565b601f8211156131b45761318581613054565b61318e84613069565b8101602085101561319d578190505b6131b16131a985613069565b830182613150565b50505b505050565b600082821c905092915050565b60006131d7600019846008026131b9565b1980831691505092915050565b60006131f083836131c6565b9150826002028217905092915050565b6132098261235f565b67ffffffffffffffff8111156132225761322161253b565b5b61322c8254612ce6565b613237828285613173565b600060209050601f83116001811461326a5760008415613258578287015190505b61326285826131e4565b8655506132ca565b601f19841661327886613054565b60005b828110156132a05784890151825560018201915060208501945060208101905061327b565b868310156132bd57848901516132b9601f8916826131c6565b8355505b6001600288020188555050505b505050505050565b7f4552433732313a20696e76616c696420746f6b656e2049440000000000000000600082015250565b600061330860188361236a565b9150613313826132d2565b602082019050919050565b60006020820190508181036000830152613337816132fb565b9050919050565b7f19457468657265756d205369676e6564204d6573736167653a0a000000000000815250565b600081905092915050565b600061337a8261235f565b6133848185613364565b935061339481856020860161237b565b80840191505092915050565b60006133ab8261333e565b601a820191506133bb828461336f565b915081905092915050565b60006133d2828561336f565b91506133de828461336f565b91508190509392505050565b6133f381612987565b82525050565b6134028161294e565b82525050565b600060808201905061341d60008301876133ea565b61342a60208301866133f9565b61343760408301856133ea565b61344460608301846133ea565b95945050505050565b7f4552433732313a2061646472657373207a65726f206973206e6f74206120766160008201527f6c6964206f776e65720000000000000000000000000000000000000000000000602082015250565b60006134a960298361236a565b91506134b48261344d565b604082019050919050565b600060208201905081810360008301526134d88161349c565b9050919050565b7f4552433732313a207472616e736665722066726f6d20696e636f72726563742060008201527f6f776e6572000000000000000000000000000000000000000000000000000000602082015250565b600061353b60258361236a565b9150613546826134df565b604082019050919050565b6000602082019050818103600083015261356a8161352e565b9050919050565b7f4552433732313a207472616e7366657220746f20746865207a65726f2061646460008201527f7265737300000000000000000000000000000000000000000000000000000000602082015250565b60006135cd60248361236a565b91506135d882613571565b604082019050919050565b600060208201905081810360008301526135fc816135c0565b9050919050565b7f4e487b7100000000000000000000000000000000000000000000000000000000600052601260045260246000fd5b7f4552433732313a20617070726f766520746f2063616c6c657200000000000000600082015250565b600061366860198361236a565b915061367382613632565b602082019050919050565b600060208201905081810360008301526136978161365b565b9050919050565b7f4552433732313a207472616e7366657220746f206e6f6e20455243373231526560008201527f63656976657220696d706c656d656e7465720000000000000000000000000000602082015250565b60006136fa60328361236a565b91506137058261369e565b604082019050919050565b60006020820190508181036000830152613729816136ed565b9050919050565b600081519050919050565b600082825260208201905092915050565b600061375782613730565b613761818561373b565b935061377181856020860161237b565b61377a816123a5565b840191505092915050565b600060808201905061379a6000830187612474565b6137a76020830186612474565b6137b460408301856127e9565b81810360608301526137c6818461374c565b905095945050505050565b6000815190506137e081612245565b92915050565b6000602082840312156137fc576137fb61220f565b5b600061380a848285016137d1565b91505092915050565b7f4552433732313a206d696e7420746f20746865207a65726f2061646472657373600082015250565b600061384960208361236a565b915061385482613813565b602082019050919050565b600060208201905081810360008301526138788161383c565b9050919050565b7f4552433732313a20746f6b656e20616c7265616479206d696e74656400000000600082015250565b60006138b5601c8361236a565b91506138c08261387f565b602082019050919050565b600060208201905081810360008301526138e4816138a8565b905091905056fea26469706673582212207a3be27f486c4cb650deee1ea66dd103c3fd14c33bcfc74f33ac463b5e951aab64736f6c63430008130033",
  "immutableReferences": {},
  "source": "// SPDX-License-Identifier: MIT\npragma solidity >=0.4.22 <0.9.0;\n\nimport \"./Creator.sol\";\n\ncontract Nike is Creator{\n    constructor() Creator(\"NIKE\",\"NKE\"){\n\n    }\n}",
  "sourcePath": "/Users/paulpou/projects/HackTM2023/creator/contracts/Nike.sol",
  "compiler": {
    "name": "solc",
    "version": "0.8.19+commit.7dd6d404.Emscripten.clang"
  },
  "schemaVersion": "3.4.13",
  "updatedAt": "2023-05-14T02:24:52.145Z",
  "networkType": "ethereum",
  "devdoc": {
    "events": {
      "Approval(address,address,uint256)": {
        "details": "Emitted when `owner` enables `approved` to manage the `tokenId` token."
      },
      "ApprovalForAll(address,address,bool)": {
        "details": "Emitted when `owner` enables or disables (`approved`) `operator` to manage all of its assets."
      },
      "Transfer(address,address,uint256)": {
        "details": "Emitted when `tokenId` token is transferred from `from` to `to`."
      }
    },
    "kind": "dev",
    "methods": {
      "approve(address,uint256)": {
        "details": "See {IERC721-approve}."
      },
      "balanceOf(address)": {
        "details": "See {IERC721-balanceOf}."
      },
      "getApproved(uint256)": {
        "details": "See {IERC721-getApproved}."
      },
      "isApprovedForAll(address,address)": {
        "details": "See {IERC721-isApprovedForAll}."
      },
      "name()": {
        "details": "See {IERC721Metadata-name}."
      },
      "ownerOf(uint256)": {
        "details": "See {IERC721-ownerOf}."
      },
      "safeTransferFrom(address,address,uint256)": {
        "details": "See {IERC721-safeTransferFrom}."
      },
      "safeTransferFrom(address,address,uint256,bytes)": {
        "details": "See {IERC721-safeTransferFrom}."
      },
      "setApprovalForAll(address,bool)": {
        "details": "See {IERC721-setApprovalForAll}."
      },
      "supportsInterface(bytes4)": {
        "details": "See {IERC165-supportsInterface}."
      },
      "symbol()": {
        "details": "See {IERC721Metadata-symbol}."
      },
      "tokenURI(uint256)": {
        "details": "See {IERC721Metadata-tokenURI}."
      },
      "transferFrom(address,address,uint256)": {
        "details": "See {IERC721-transferFrom}."
      }
    },
    "version": 1
  },
  "userdoc": {
    "kind": "user",
    "methods": {},
    "version": 1
  }
}