{
  "contractName": "MaterialCoin",
  "abi": [
    {
      "inputs": [
        {
          "internalType": "string",
          "name": "name",
          "type": "string"
        },
        {
          "internalType": "string",
          "name": "unit",
          "type": "string"
        }
      ],
      "stateMutability": "nonpayable",
      "type": "constructor"
    },
    {
      "anonymous": false,
      "inputs": [
        {
          "indexed": true,
          "internalType": "address",
          "name": "owner",
          "type": "address"
        },
        {
          "indexed": true,
          "internalType": "address",
          "name": "spender",
          "type": "address"
        },
        {
          "indexed": false,
          "internalType": "uint256",
          "name": "value",
          "type": "uint256"
        }
      ],
      "name": "Approval",
      "type": "event"
    },
    {
      "anonymous": false,
      "inputs": [
        {
          "indexed": true,
          "internalType": "address",
          "name": "previousOwner",
          "type": "address"
        },
        {
          "indexed": true,
          "internalType": "address",
          "name": "newOwner",
          "type": "address"
        }
      ],
      "name": "OwnershipTransferred",
      "type": "event"
    },
    {
      "anonymous": false,
      "inputs": [
        {
          "indexed": true,
          "internalType": "address",
          "name": "from",
          "type": "address"
        },
        {
          "indexed": true,
          "internalType": "address",
          "name": "to",
          "type": "address"
        },
        {
          "indexed": false,
          "internalType": "uint256",
          "name": "value",
          "type": "uint256"
        }
      ],
      "name": "Transfer",
      "type": "event"
    },
    {
      "inputs": [
        {
          "internalType": "address",
          "name": "owner",
          "type": "address"
        },
        {
          "internalType": "address",
          "name": "spender",
          "type": "address"
        }
      ],
      "name": "allowance",
      "outputs": [
        {
          "internalType": "uint256",
          "name": "",
          "type": "uint256"
        }
      ],
      "stateMutability": "view",
      "type": "function"
    },
    {
      "inputs": [
        {
          "internalType": "address",
          "name": "spender",
          "type": "address"
        },
        {
          "internalType": "uint256",
          "name": "amount",
          "type": "uint256"
        }
      ],
      "name": "approve",
      "outputs": [
        {
          "internalType": "bool",
          "name": "",
          "type": "bool"
        }
      ],
      "stateMutability": "nonpayable",
      "type": "function"
    },
    {
      "inputs": [
        {
          "internalType": "address",
          "name": "account",
          "type": "address"
        }
      ],
      "name": "balanceOf",
      "outputs": [
        {
          "internalType": "uint256",
          "name": "",
          "type": "uint256"
        }
      ],
      "stateMutability": "view",
      "type": "function"
    },
    {
      "inputs": [
        {
          "internalType": "address",
          "name": "",
          "type": "address"
        }
      ],
      "name": "certificates",
      "outputs": [
        {
          "internalType": "bool",
          "name": "",
          "type": "bool"
        }
      ],
      "stateMutability": "view",
      "type": "function"
    },
    {
      "inputs": [
        {
          "internalType": "uint256",
          "name": "",
          "type": "uint256"
        }
      ],
      "name": "certificationList",
      "outputs": [
        {
          "internalType": "address",
          "name": "",
          "type": "address"
        }
      ],
      "stateMutability": "view",
      "type": "function"
    },
    {
      "inputs": [],
      "name": "certifications",
      "outputs": [
        {
          "internalType": "uint256",
          "name": "",
          "type": "uint256"
        }
      ],
      "stateMutability": "view",
      "type": "function"
    },
    {
      "inputs": [],
      "name": "decimals",
      "outputs": [
        {
          "internalType": "uint8",
          "name": "",
          "type": "uint8"
        }
      ],
      "stateMutability": "view",
      "type": "function"
    },
    {
      "inputs": [
        {
          "internalType": "address",
          "name": "spender",
          "type": "address"
        },
        {
          "internalType": "uint256",
          "name": "subtractedValue",
          "type": "uint256"
        }
      ],
      "name": "decreaseAllowance",
      "outputs": [
        {
          "internalType": "bool",
          "name": "",
          "type": "bool"
        }
      ],
      "stateMutability": "nonpayable",
      "type": "function"
    },
    {
      "inputs": [
        {
          "internalType": "address",
          "name": "spender",
          "type": "address"
        },
        {
          "internalType": "uint256",
          "name": "addedValue",
          "type": "uint256"
        }
      ],
      "name": "increaseAllowance",
      "outputs": [
        {
          "internalType": "bool",
          "name": "",
          "type": "bool"
        }
      ],
      "stateMutability": "nonpayable",
      "type": "function"
    },
    {
      "inputs": [
        {
          "internalType": "address",
          "name": "",
          "type": "address"
        }
      ],
      "name": "managers",
      "outputs": [
        {
          "internalType": "bool",
          "name": "",
          "type": "bool"
        }
      ],
      "stateMutability": "view",
      "type": "function"
    },
    {
      "inputs": [],
      "name": "name",
      "outputs": [
        {
          "internalType": "string",
          "name": "",
          "type": "string"
        }
      ],
      "stateMutability": "view",
      "type": "function"
    },
    {
      "inputs": [],
      "name": "owner",
      "outputs": [
        {
          "internalType": "address",
          "name": "",
          "type": "address"
        }
      ],
      "stateMutability": "view",
      "type": "function"
    },
    {
      "inputs": [],
      "name": "renounceOwnership",
      "outputs": [],
      "stateMutability": "nonpayable",
      "type": "function"
    },
    {
      "inputs": [],
      "name": "symbol",
      "outputs": [
        {
          "internalType": "string",
          "name": "",
          "type": "string"
        }
      ],
      "stateMutability": "view",
      "type": "function"
    },
    {
      "inputs": [],
      "name": "totalSupply",
      "outputs": [
        {
          "internalType": "uint256",
          "name": "",
          "type": "uint256"
        }
      ],
      "stateMutability": "view",
      "type": "function"
    },
    {
      "inputs": [
        {
          "internalType": "address",
          "name": "to",
          "type": "address"
        },
        {
          "internalType": "uint256",
          "name": "amount",
          "type": "uint256"
        }
      ],
      "name": "transfer",
      "outputs": [
        {
          "internalType": "bool",
          "name": "",
          "type": "bool"
        }
      ],
      "stateMutability": "nonpayable",
      "type": "function"
    },
    {
      "inputs": [
        {
          "internalType": "address",
          "name": "from",
          "type": "address"
        },
        {
          "internalType": "address",
          "name": "to",
          "type": "address"
        },
        {
          "internalType": "uint256",
          "name": "amount",
          "type": "uint256"
        }
      ],
      "name": "transferFrom",
      "outputs": [
        {
          "internalType": "bool",
          "name": "",
          "type": "bool"
        }
      ],
      "stateMutability": "nonpayable",
      "type": "function"
    },
    {
      "inputs": [
        {
          "internalType": "address",
          "name": "newOwner",
          "type": "address"
        }
      ],
      "name": "transferOwnership",
      "outputs": [],
      "stateMutability": "nonpayable",
      "type": "function"
    },
    {
      "inputs": [
        {
          "internalType": "address",
          "name": "manager_address",
          "type": "address"
        },
        {
          "internalType": "bool",
          "name": "is_manager",
          "type": "bool"
        }
      ],
      "name": "editManager",
      "outputs": [],
      "stateMutability": "nonpayable",
      "type": "function"
    },
    {
      "inputs": [
        {
          "internalType": "address",
          "name": "receiver",
          "type": "address"
        },
        {
          "internalType": "uint256",
          "name": "amount",
          "type": "uint256"
        }
      ],
      "name": "sendCoins",
      "outputs": [],
      "stateMutability": "nonpayable",
      "type": "function"
    },
    {
      "inputs": [
        {
          "internalType": "address",
          "name": "certificate_address",
          "type": "address"
        },
        {
          "internalType": "bool",
          "name": "is_certificated",
          "type": "bool"
        }
      ],
      "name": "editCertificate",
      "outputs": [],
      "stateMutability": "nonpayable",
      "type": "function"
    },
    {
      "inputs": [
        {
          "internalType": "address",
          "name": "producerAddress",
          "type": "address"
        }
      ],
      "name": "addCertificate",
      "outputs": [],
      "stateMutability": "nonpayable",
      "type": "function"
    },
    {
      "inputs": [
        {
          "internalType": "address",
          "name": "producerAddress",
          "type": "address"
        }
      ],
      "name": "removeCeritificate",
      "outputs": [],
      "stateMutability": "nonpayable",
      "type": "function"
    }
  ],
  "bytecode": "0x608060405260006006553480156200001657600080fd5b50604051620026be380380620026be83398181016040528101906200003c9190620002ed565b818181600390816200004f9190620005bd565b508060049081620000619190620005bd565b50505062000084620000786200008c60201b60201c565b6200009460201b60201c565b5050620006a4565b600033905090565b6000600560009054906101000a900473ffffffffffffffffffffffffffffffffffffffff16905081600560006101000a81548173ffffffffffffffffffffffffffffffffffffffff021916908373ffffffffffffffffffffffffffffffffffffffff1602179055508173ffffffffffffffffffffffffffffffffffffffff168173ffffffffffffffffffffffffffffffffffffffff167f8be0079c531659141344cd1fd0a4f28419497f9722a3daafe3b4186f6b6457e060405160405180910390a35050565b6000604051905090565b600080fd5b600080fd5b600080fd5b600080fd5b6000601f19601f8301169050919050565b7f4e487b7100000000000000000000000000000000000000000000000000000000600052604160045260246000fd5b620001c38262000178565b810181811067ffffffffffffffff82111715620001e557620001e462000189565b5b80604052505050565b6000620001fa6200015a565b9050620002088282620001b8565b919050565b600067ffffffffffffffff8211156200022b576200022a62000189565b5b620002368262000178565b9050602081019050919050565b60005b838110156200026357808201518184015260208101905062000246565b60008484015250505050565b60006200028662000280846200020d565b620001ee565b905082815260208101848484011115620002a557620002a462000173565b5b620002b284828562000243565b509392505050565b600082601f830112620002d257620002d16200016e565b5b8151620002e48482602086016200026f565b91505092915050565b6000806040838503121562000307576200030662000164565b5b600083015167ffffffffffffffff81111562000328576200032762000169565b5b6200033685828601620002ba565b925050602083015167ffffffffffffffff8111156200035a576200035962000169565b5b6200036885828601620002ba565b9150509250929050565b600081519050919050565b7f4e487b7100000000000000000000000000000000000000000000000000000000600052602260045260246000fd5b60006002820490506001821680620003c557607f821691505b602082108103620003db57620003da6200037d565b5b50919050565b60008190508160005260206000209050919050565b60006020601f8301049050919050565b600082821b905092915050565b600060088302620004457fffffffffffffffffffffffffffffffffffffffffffffffffffffffffffffffff8262000406565b62000451868362000406565b95508019841693508086168417925050509392505050565b6000819050919050565b6000819050919050565b60006200049e62000498620004928462000469565b62000473565b62000469565b9050919050565b6000819050919050565b620004ba836200047d565b620004d2620004c982620004a5565b84845462000413565b825550505050565b600090565b620004e9620004da565b620004f6818484620004af565b505050565b5b818110156200051e5762000512600082620004df565b600181019050620004fc565b5050565b601f8211156200056d576200053781620003e1565b6200054284620003f6565b8101602085101562000552578190505b6200056a6200056185620003f6565b830182620004fb565b50505b505050565b600082821c905092915050565b6000620005926000198460080262000572565b1980831691505092915050565b6000620005ad83836200057f565b9150826002028217905092915050565b620005c88262000372565b67ffffffffffffffff811115620005e457620005e362000189565b5b620005f08254620003ac565b620005fd82828562000522565b600060209050601f83116001811462000635576000841562000620578287015190505b6200062c85826200059f565b8655506200069c565b601f1984166200064586620003e1565b60005b828110156200066f5784890151825560018201915060208501945060208101905062000648565b868310156200068f57848901516200068b601f8916826200057f565b8355505b6001600288020188555050505b505050505050565b61200a80620006b46000396000f3fe608060405234801561001057600080fd5b506004361061014c5760003560e01c806370a08231116100c3578063a9059cbb1161007c578063a9059cbb146103b3578063af2c9ca3146103e3578063dd62ed3e146103ff578063e1642fd91461042f578063f2fde38b1461044b578063fdff9b4d146104675761014c565b806370a08231146102f1578063715018a6146103215780637c6ebde91461032b5780638da5cb5b1461034757806395d89b4114610365578063a457c2d7146103835761014c565b80631eac204b116101155780631eac204b1461020957806323b872dd14610227578063313ce5671461025757806339509351146102755780635d56562b146102a557806368d249a5146102d55761014c565b806216e5261461015157806302ba87421461018157806306fdde031461019d578063095ea7b3146101bb57806318160ddd146101eb575b600080fd5b61016b60048036038101906101669190611521565b610497565b6040516101789190611569565b60405180910390f35b61019b600480360381019061019691906115ba565b6104b7565b005b6101a5610558565b6040516101b2919061168a565b60405180910390f35b6101d560048036038101906101d091906115ba565b6105ea565b6040516101e29190611569565b60405180910390f35b6101f361060d565b60405161020091906116bb565b60405180910390f35b610211610617565b60405161021e91906116bb565b60405180910390f35b610241600480360381019061023c91906116d6565b61061d565b60405161024e9190611569565b60405180910390f35b61025f61064c565b60405161026c9190611745565b60405180910390f35b61028f600480360381019061028a91906115ba565b610655565b60405161029c9190611569565b60405180910390f35b6102bf60048036038101906102ba9190611760565b61068c565b6040516102cc919061179c565b60405180910390f35b6102ef60048036038101906102ea9190611521565b6106cb565b005b61030b60048036038101906103069190611521565b6107b9565b60405161031891906116bb565b60405180910390f35b610329610801565b005b61034560048036038101906103409190611521565b610815565b005b61034f61097e565b60405161035c919061179c565b60405180910390f35b61036d6109a8565b60405161037a919061168a565b60405180910390f35b61039d600480360381019061039891906115ba565b610a3a565b6040516103aa9190611569565b60405180910390f35b6103cd60048036038101906103c891906115ba565b610ab1565b6040516103da9190611569565b60405180910390f35b6103fd60048036038101906103f891906117e3565b610ad4565b005b61041960048036038101906104149190611823565b610b37565b60405161042691906116bb565b60405180910390f35b610449600480360381019061044491906117e3565b610bbe565b005b61046560048036038101906104609190611521565b610ca4565b005b610481600480360381019061047c9190611521565b610d27565b60405161048e9190611569565b60405180910390f35b60096020528060005260406000206000915054906101000a900460ff1681565b60011515600860003373ffffffffffffffffffffffffffffffffffffffff1673ffffffffffffffffffffffffffffffffffffffff16815260200190815260200160002060009054906101000a900460ff1615151461054a576040517f08c379a0000000000000000000000000000000000000000000000000000000008152600401610541906118d5565b60405180910390fd5b6105548282610d47565b5050565b60606003805461056790611924565b80601f016020809104026020016040519081016040528092919081815260200182805461059390611924565b80156105e05780601f106105b5576101008083540402835291602001916105e0565b820191906000526020600020905b8154815290600101906020018083116105c357829003601f168201915b5050505050905090565b6000806105f5610e9d565b9050610602818585610ea5565b600191505092915050565b6000600254905090565b60065481565b600080610628610e9d565b905061063585828561106e565b6106408585856110fa565b60019150509392505050565b60006012905090565b600080610660610e9d565b90506106818185856106728589610b37565b61067c9190611984565b610ea5565b600191505092915050565b6007818154811061069c57600080fd5b906000526020600020016000915054906101000a900473ffffffffffffffffffffffffffffffffffffffff1681565b60011515600860003373ffffffffffffffffffffffffffffffffffffffff1673ffffffffffffffffffffffffffffffffffffffff16815260200190815260200160002060009054906101000a900460ff1615151461075e576040517f08c379a000000000000000000000000000000000000000000000000000000000815260040161075590611a2a565b60405180910390fd5b6000600960008373ffffffffffffffffffffffffffffffffffffffff1673ffffffffffffffffffffffffffffffffffffffff16815260200190815260200160002060006101000a81548160ff02191690831515021790555050565b60008060008373ffffffffffffffffffffffffffffffffffffffff1673ffffffffffffffffffffffffffffffffffffffff168152602001908152602001600020549050919050565b610809611370565b61081360006113ee565b565b60011515600860003373ffffffffffffffffffffffffffffffffffffffff1673ffffffffffffffffffffffffffffffffffffffff16815260200190815260200160002060009054906101000a900460ff161515146108a8576040517f08c379a000000000000000000000000000000000000000000000000000000000815260040161089f90611a2a565b60405180910390fd5b6001600960008373ffffffffffffffffffffffffffffffffffffffff1673ffffffffffffffffffffffffffffffffffffffff16815260200190815260200160002060006101000a81548160ff0219169083151502179055506007819080600181540180825580915050600190039060005260206000200160009091909190916101000a81548173ffffffffffffffffffffffffffffffffffffffff021916908373ffffffffffffffffffffffffffffffffffffffff1602179055506006600081548092919061097690611a4a565b919050555050565b6000600560009054906101000a900473ffffffffffffffffffffffffffffffffffffffff16905090565b6060600480546109b790611924565b80601f01602080910402602001604051908101604052809291908181526020018280546109e390611924565b8015610a305780601f10610a0557610100808354040283529160200191610a30565b820191906000526020600020905b815481529060010190602001808311610a1357829003601f168201915b5050505050905090565b600080610a45610e9d565b90506000610a538286610b37565b905083811015610a98576040517f08c379a0000000000000000000000000000000000000000000000000000000008152600401610a8f90611b04565b60405180910390fd5b610aa58286868403610ea5565b60019250505092915050565b600080610abc610e9d565b9050610ac98185856110fa565b600191505092915050565b610adc611370565b80600860008473ffffffffffffffffffffffffffffffffffffffff1673ffffffffffffffffffffffffffffffffffffffff16815260200190815260200160002060006101000a81548160ff0219169083151502179055505050565b6000600160008473ffffffffffffffffffffffffffffffffffffffff1673ffffffffffffffffffffffffffffffffffffffff16815260200190815260200160002060008373ffffffffffffffffffffffffffffffffffffffff1673ffffffffffffffffffffffffffffffffffffffff16815260200190815260200160002054905092915050565b60011515600860003373ffffffffffffffffffffffffffffffffffffffff1673ffffffffffffffffffffffffffffffffffffffff16815260200190815260200160002060009054906101000a900460ff16151514610c51576040517f08c379a0000000000000000000000000000000000000000000000000000000008152600401610c48906118d5565b60405180910390fd5b801515600960008473ffffffffffffffffffffffffffffffffffffffff1673ffffffffffffffffffffffffffffffffffffffff16815260200190815260200160002060009054906101000a905050505050565b610cac611370565b600073ffffffffffffffffffffffffffffffffffffffff168173ffffffffffffffffffffffffffffffffffffffff1603610d1b576040517f08c379a0000000000000000000000000000000000000000000000000000000008152600401610d1290611b96565b60405180910390fd5b610d24816113ee565b50565b60086020528060005260406000206000915054906101000a900460ff1681565b600073ffffffffffffffffffffffffffffffffffffffff168273ffffffffffffffffffffffffffffffffffffffff1603610db6576040517f08c379a0000000000000000000000000000000000000000000000000000000008152600401610dad90611c02565b60405180910390fd5b610dc2600083836114b4565b8060026000828254610dd49190611984565b92505081905550806000808473ffffffffffffffffffffffffffffffffffffffff1673ffffffffffffffffffffffffffffffffffffffff168152602001908152602001600020600082825401925050819055508173ffffffffffffffffffffffffffffffffffffffff16600073ffffffffffffffffffffffffffffffffffffffff167fddf252ad1be2c89b69c2b068fc378daa952ba7f163c4a11628f55a4df523b3ef83604051610e8591906116bb565b60405180910390a3610e99600083836114b9565b5050565b600033905090565b600073ffffffffffffffffffffffffffffffffffffffff168373ffffffffffffffffffffffffffffffffffffffff1603610f14576040517f08c379a0000000000000000000000000000000000000000000000000000000008152600401610f0b90611c94565b60405180910390fd5b600073ffffffffffffffffffffffffffffffffffffffff168273ffffffffffffffffffffffffffffffffffffffff1603610f83576040517f08c379a0000000000000000000000000000000000000000000000000000000008152600401610f7a90611d26565b60405180910390fd5b80600160008573ffffffffffffffffffffffffffffffffffffffff1673ffffffffffffffffffffffffffffffffffffffff16815260200190815260200160002060008473ffffffffffffffffffffffffffffffffffffffff1673ffffffffffffffffffffffffffffffffffffffff168152602001908152602001600020819055508173ffffffffffffffffffffffffffffffffffffffff168373ffffffffffffffffffffffffffffffffffffffff167f8c5be1e5ebec7d5bd14f71427d1e84f3dd0314c0f7b2291e5b200ac8c7c3b9258360405161106191906116bb565b60405180910390a3505050565b600061107a8484610b37565b90507fffffffffffffffffffffffffffffffffffffffffffffffffffffffffffffffff81146110f457818110156110e6576040517f08c379a00000000000000000000000000000000000000000000000000000000081526004016110dd90611d92565b60405180910390fd5b6110f38484848403610ea5565b5b50505050565b600073ffffffffffffffffffffffffffffffffffffffff168373ffffffffffffffffffffffffffffffffffffffff1603611169576040517f08c379a000000000000000000000000000000000000000000000000000000000815260040161116090611e24565b60405180910390fd5b600073ffffffffffffffffffffffffffffffffffffffff168273ffffffffffffffffffffffffffffffffffffffff16036111d8576040517f08c379a00000000000000000000000000000000000000000000000000000000081526004016111cf90611eb6565b60405180910390fd5b6111e38383836114b4565b60008060008573ffffffffffffffffffffffffffffffffffffffff1673ffffffffffffffffffffffffffffffffffffffff16815260200190815260200160002054905081811015611269576040517f08c379a000000000000000000000000000000000000000000000000000000000815260040161126090611f48565b60405180910390fd5b8181036000808673ffffffffffffffffffffffffffffffffffffffff1673ffffffffffffffffffffffffffffffffffffffff16815260200190815260200160002081905550816000808573ffffffffffffffffffffffffffffffffffffffff1673ffffffffffffffffffffffffffffffffffffffff168152602001908152602001600020600082825401925050819055508273ffffffffffffffffffffffffffffffffffffffff168473ffffffffffffffffffffffffffffffffffffffff167fddf252ad1be2c89b69c2b068fc378daa952ba7f163c4a11628f55a4df523b3ef8460405161135791906116bb565b60405180910390a361136a8484846114b9565b50505050565b611378610e9d565b73ffffffffffffffffffffffffffffffffffffffff1661139661097e565b73ffffffffffffffffffffffffffffffffffffffff16146113ec576040517f08c379a00000000000000000000000000000000000000000000000000000000081526004016113e390611fb4565b60405180910390fd5b565b6000600560009054906101000a900473ffffffffffffffffffffffffffffffffffffffff16905081600560006101000a81548173ffffffffffffffffffffffffffffffffffffffff021916908373ffffffffffffffffffffffffffffffffffffffff1602179055508173ffffffffffffffffffffffffffffffffffffffff168173ffffffffffffffffffffffffffffffffffffffff167f8be0079c531659141344cd1fd0a4f28419497f9722a3daafe3b4186f6b6457e060405160405180910390a35050565b505050565b505050565b600080fd5b600073ffffffffffffffffffffffffffffffffffffffff82169050919050565b60006114ee826114c3565b9050919050565b6114fe816114e3565b811461150957600080fd5b50565b60008135905061151b816114f5565b92915050565b600060208284031215611537576115366114be565b5b60006115458482850161150c565b91505092915050565b60008115159050919050565b6115638161154e565b82525050565b600060208201905061157e600083018461155a565b92915050565b6000819050919050565b61159781611584565b81146115a257600080fd5b50565b6000813590506115b48161158e565b92915050565b600080604083850312156115d1576115d06114be565b5b60006115df8582860161150c565b92505060206115f0858286016115a5565b9150509250929050565b600081519050919050565b600082825260208201905092915050565b60005b83811015611634578082015181840152602081019050611619565b60008484015250505050565b6000601f19601f8301169050919050565b600061165c826115fa565b6116668185611605565b9350611676818560208601611616565b61167f81611640565b840191505092915050565b600060208201905081810360008301526116a48184611651565b905092915050565b6116b581611584565b82525050565b60006020820190506116d060008301846116ac565b92915050565b6000806000606084860312156116ef576116ee6114be565b5b60006116fd8682870161150c565b935050602061170e8682870161150c565b925050604061171f868287016115a5565b9150509250925092565b600060ff82169050919050565b61173f81611729565b82525050565b600060208201905061175a6000830184611736565b92915050565b600060208284031215611776576117756114be565b5b6000611784848285016115a5565b91505092915050565b611796816114e3565b82525050565b60006020820190506117b1600083018461178d565b92915050565b6117c08161154e565b81146117cb57600080fd5b50565b6000813590506117dd816117b7565b92915050565b600080604083850312156117fa576117f96114be565b5b60006118088582860161150c565b9250506020611819858286016117ce565b9150509250929050565b6000806040838503121561183a576118396114be565b5b60006118488582860161150c565b92505060206118598582860161150c565b9150509250929050565b7f596f7520617265206e6f742061206d616e61676572206f66207468697320636f60008201527f696e210000000000000000000000000000000000000000000000000000000000602082015250565b60006118bf602383611605565b91506118ca82611863565b604082019050919050565b600060208201905081810360008301526118ee816118b2565b9050919050565b7f4e487b7100000000000000000000000000000000000000000000000000000000600052602260045260246000fd5b6000600282049050600182168061193c57607f821691505b60208210810361194f5761194e6118f5565b5b50919050565b7f4e487b7100000000000000000000000000000000000000000000000000000000600052601160045260246000fd5b600061198f82611584565b915061199a83611584565b92508282019050808211156119b2576119b1611955565b5b92915050565b7f596f7520617265206e6f742061206d616e61676572206f66207468697320617560008201527f74686f7269747921000000000000000000000000000000000000000000000000602082015250565b6000611a14602883611605565b9150611a1f826119b8565b604082019050919050565b60006020820190508181036000830152611a4381611a07565b9050919050565b6000611a5582611584565b91507fffffffffffffffffffffffffffffffffffffffffffffffffffffffffffffffff8203611a8757611a86611955565b5b600182019050919050565b7f45524332303a2064656372656173656420616c6c6f77616e63652062656c6f7760008201527f207a65726f000000000000000000000000000000000000000000000000000000602082015250565b6000611aee602583611605565b9150611af982611a92565b604082019050919050565b60006020820190508181036000830152611b1d81611ae1565b9050919050565b7f4f776e61626c653a206e6577206f776e657220697320746865207a65726f206160008201527f6464726573730000000000000000000000000000000000000000000000000000602082015250565b6000611b80602683611605565b9150611b8b82611b24565b604082019050919050565b60006020820190508181036000830152611baf81611b73565b9050919050565b7f45524332303a206d696e7420746f20746865207a65726f206164647265737300600082015250565b6000611bec601f83611605565b9150611bf782611bb6565b602082019050919050565b60006020820190508181036000830152611c1b81611bdf565b9050919050565b7f45524332303a20617070726f76652066726f6d20746865207a65726f2061646460008201527f7265737300000000000000000000000000000000000000000000000000000000602082015250565b6000611c7e602483611605565b9150611c8982611c22565b604082019050919050565b60006020820190508181036000830152611cad81611c71565b9050919050565b7f45524332303a20617070726f766520746f20746865207a65726f20616464726560008201527f7373000000000000000000000000000000000000000000000000000000000000602082015250565b6000611d10602283611605565b9150611d1b82611cb4565b604082019050919050565b60006020820190508181036000830152611d3f81611d03565b9050919050565b7f45524332303a20696e73756666696369656e7420616c6c6f77616e6365000000600082015250565b6000611d7c601d83611605565b9150611d8782611d46565b602082019050919050565b60006020820190508181036000830152611dab81611d6f565b9050919050565b7f45524332303a207472616e736665722066726f6d20746865207a65726f20616460008201527f6472657373000000000000000000000000000000000000000000000000000000602082015250565b6000611e0e602583611605565b9150611e1982611db2565b604082019050919050565b60006020820190508181036000830152611e3d81611e01565b9050919050565b7f45524332303a207472616e7366657220746f20746865207a65726f206164647260008201527f6573730000000000000000000000000000000000000000000000000000000000602082015250565b6000611ea0602383611605565b9150611eab82611e44565b604082019050919050565b60006020820190508181036000830152611ecf81611e93565b9050919050565b7f45524332303a207472616e7366657220616d6f756e742065786365656473206260008201527f616c616e63650000000000000000000000000000000000000000000000000000602082015250565b6000611f32602683611605565b9150611f3d82611ed6565b604082019050919050565b60006020820190508181036000830152611f6181611f25565b9050919050565b7f4f776e61626c653a2063616c6c6572206973206e6f7420746865206f776e6572600082015250565b6000611f9e602083611605565b9150611fa982611f68565b602082019050919050565b60006020820190508181036000830152611fcd81611f91565b905091905056fea2646970667358221220323f7fddbfacdb90c3e81b78eaa19ddf87eb5a895f18bfaede8b9f14d95812dd64736f6c63430008130033",
  "immutableReferences": {},
  "source": "// SPDX-License-Identifier: MIT\npragma solidity >=0.4.22 <0.9.0;\n\nimport \"@openzeppelin/contracts/token/ERC20/ERC20.sol\";\nimport \"@openzeppelin/contracts/access/Ownable.sol\";\n\n\ncontract MaterialCoin is ERC20, Ownable{\n  uint256 public certifications=0;\n  address[] public certificationList;\n\n  mapping (address=>bool) public managers;\n  mapping (address=>bool) public certificates;\n\n  constructor(string memory name, string memory unit) ERC20(name, unit){\n  }\n\n  function editManager(address manager_address, bool is_manager) public onlyOwner{\n    managers[manager_address]=is_manager;\n  }\n\n  function sendCoins(address receiver, uint amount) public{\n    require(managers[msg.sender]==true,\"You are not a manager of this coin!\");\n    _mint(receiver, amount);\n  }\n\n  function editCertificate(address certificate_address, bool is_certificated) public{\n    require(managers[msg.sender]==true,\"You are not a manager of this coin!\");\n    certificates[certificate_address]==is_certificated;\n  }\n\n  function addCertificate(address producerAddress) public{\n    require(managers[msg.sender]==true,\"You are not a manager of this authority!\");\n    certificates[producerAddress]=true;\n    certificationList.push(producerAddress);\n    certifications++;\n  }\n\n  function removeCeritificate(address producerAddress) public {\n    require(managers[msg.sender]==true,\"You are not a manager of this authority!\");\n    certificates[producerAddress]=false;\n  }\n}\n\n",
  "sourcePath": "/Users/paulpou/projects/HackTM2023/material/contracts/MaterialCoin.sol",
  "compiler": {
    "name": "solc",
    "version": "0.8.19+commit.7dd6d404.Emscripten.clang"
  },
  "schemaVersion": "3.4.13",
  "updatedAt": "2023-05-14T01:33:18.375Z",
  "devdoc": {
    "events": {
      "Approval(address,address,uint256)": {
        "details": "Emitted when the allowance of a `spender` for an `owner` is set by a call to {approve}. `value` is the new allowance."
      },
      "Transfer(address,address,uint256)": {
        "details": "Emitted when `value` tokens are moved from one account (`from`) to another (`to`). Note that `value` may be zero."
      }
    },
    "kind": "dev",
    "methods": {
      "allowance(address,address)": {
        "details": "See {IERC20-allowance}."
      },
      "approve(address,uint256)": {
        "details": "See {IERC20-approve}. NOTE: If `amount` is the maximum `uint256`, the allowance is not updated on `transferFrom`. This is semantically equivalent to an infinite approval. Requirements: - `spender` cannot be the zero address."
      },
      "balanceOf(address)": {
        "details": "See {IERC20-balanceOf}."
      },
      "decimals()": {
        "details": "Returns the number of decimals used to get its user representation. For example, if `decimals` equals `2`, a balance of `505` tokens should be displayed to a user as `5.05` (`505 / 10 ** 2`). Tokens usually opt for a value of 18, imitating the relationship between Ether and Wei. This is the value {ERC20} uses, unless this function is overridden; NOTE: This information is only used for _display_ purposes: it in no way affects any of the arithmetic of the contract, including {IERC20-balanceOf} and {IERC20-transfer}."
      },
      "decreaseAllowance(address,uint256)": {
        "details": "Atomically decreases the allowance granted to `spender` by the caller. This is an alternative to {approve} that can be used as a mitigation for problems described in {IERC20-approve}. Emits an {Approval} event indicating the updated allowance. Requirements: - `spender` cannot be the zero address. - `spender` must have allowance for the caller of at least `subtractedValue`."
      },
      "increaseAllowance(address,uint256)": {
        "details": "Atomically increases the allowance granted to `spender` by the caller. This is an alternative to {approve} that can be used as a mitigation for problems described in {IERC20-approve}. Emits an {Approval} event indicating the updated allowance. Requirements: - `spender` cannot be the zero address."
      },
      "name()": {
        "details": "Returns the name of the token."
      },
      "owner()": {
        "details": "Returns the address of the current owner."
      },
      "renounceOwnership()": {
        "details": "Leaves the contract without owner. It will not be possible to call `onlyOwner` functions anymore. Can only be called by the current owner. NOTE: Renouncing ownership will leave the contract without an owner, thereby removing any functionality that is only available to the owner."
      },
      "symbol()": {
        "details": "Returns the symbol of the token, usually a shorter version of the name."
      },
      "totalSupply()": {
        "details": "See {IERC20-totalSupply}."
      },
      "transfer(address,uint256)": {
        "details": "See {IERC20-transfer}. Requirements: - `to` cannot be the zero address. - the caller must have a balance of at least `amount`."
      },
      "transferFrom(address,address,uint256)": {
        "details": "See {IERC20-transferFrom}. Emits an {Approval} event indicating the updated allowance. This is not required by the EIP. See the note at the beginning of {ERC20}. NOTE: Does not update the allowance if the current allowance is the maximum `uint256`. Requirements: - `from` and `to` cannot be the zero address. - `from` must have a balance of at least `amount`. - the caller must have allowance for ``from``'s tokens of at least `amount`."
      },
      "transferOwnership(address)": {
        "details": "Transfers ownership of the contract to a new account (`newOwner`). Can only be called by the current owner."
      }
    },
    "version": 1
  },
  "userdoc": {
    "kind": "user",
    "methods": {},
    "version": 1
  }
}