{
  "contractName": "Certifier",
  "abi": [
    {
      "inputs": [],
      "stateMutability": "nonpayable",
      "type": "constructor"
    },
    {
      "anonymous": false,
      "inputs": [
        {
          "indexed": true,
          "internalType": "address",
          "name": "previousOwner",
          "type": "address"
        },
        {
          "indexed": true,
          "internalType": "address",
          "name": "newOwner",
          "type": "address"
        }
      ],
      "name": "OwnershipTransferred",
      "type": "event"
    },
    {
      "inputs": [],
      "name": "certified",
      "outputs": [
        {
          "internalType": "uint256",
          "name": "",
          "type": "uint256"
        }
      ],
      "stateMutability": "view",
      "type": "function"
    },
    {
      "inputs": [
        {
          "internalType": "uint256",
          "name": "",
          "type": "uint256"
        }
      ],
      "name": "certifiedProducers",
      "outputs": [
        {
          "internalType": "address",
          "name": "",
          "type": "address"
        }
      ],
      "stateMutability": "view",
      "type": "function"
    },
    {
      "inputs": [],
      "name": "certifierName",
      "outputs": [
        {
          "internalType": "string",
          "name": "",
          "type": "string"
        }
      ],
      "stateMutability": "view",
      "type": "function"
    },
    {
      "inputs": [
        {
          "internalType": "address",
          "name": "",
          "type": "address"
        }
      ],
      "name": "isCertified",
      "outputs": [
        {
          "internalType": "bool",
          "name": "",
          "type": "bool"
        }
      ],
      "stateMutability": "view",
      "type": "function"
    },
    {
      "inputs": [
        {
          "internalType": "address",
          "name": "",
          "type": "address"
        }
      ],
      "name": "managers",
      "outputs": [
        {
          "internalType": "bool",
          "name": "",
          "type": "bool"
        }
      ],
      "stateMutability": "view",
      "type": "function"
    },
    {
      "inputs": [],
      "name": "owner",
      "outputs": [
        {
          "internalType": "address",
          "name": "",
          "type": "address"
        }
      ],
      "stateMutability": "view",
      "type": "function"
    },
    {
      "inputs": [],
      "name": "renounceOwnership",
      "outputs": [],
      "stateMutability": "nonpayable",
      "type": "function"
    },
    {
      "inputs": [
        {
          "internalType": "address",
          "name": "newOwner",
          "type": "address"
        }
      ],
      "name": "transferOwnership",
      "outputs": [],
      "stateMutability": "nonpayable",
      "type": "function"
    },
    {
      "inputs": [
        {
          "internalType": "address",
          "name": "managerAddress",
          "type": "address"
        },
        {
          "internalType": "bool",
          "name": "isManager",
          "type": "bool"
        }
      ],
      "name": "editManager",
      "outputs": [],
      "stateMutability": "nonpayable",
      "type": "function"
    },
    {
      "inputs": [
        {
          "internalType": "address",
          "name": "producerAddress",
          "type": "address"
        }
      ],
      "name": "addProducer",
      "outputs": [],
      "stateMutability": "nonpayable",
      "type": "function"
    },
    {
      "inputs": [
        {
          "internalType": "address",
          "name": "producerAddress",
          "type": "address"
        }
      ],
      "name": "removeProducer",
      "outputs": [],
      "stateMutability": "nonpayable",
      "type": "function"
    }
  ],
  "bytecode": "0x6080604052600060015534801561001557600080fd5b5061003261002761003760201b60201c565b61003f60201b60201c565b610103565b600033905090565b60008060009054906101000a900473ffffffffffffffffffffffffffffffffffffffff169050816000806101000a81548173ffffffffffffffffffffffffffffffffffffffff021916908373ffffffffffffffffffffffffffffffffffffffff1602179055508173ffffffffffffffffffffffffffffffffffffffff168173ffffffffffffffffffffffffffffffffffffffff167f8be0079c531659141344cd1fd0a4f28419497f9722a3daafe3b4186f6b6457e060405160405180910390a35050565b610d21806101126000396000f3fe608060405234801561001057600080fd5b50600436106100a95760003560e01c8063af2c9ca311610071578063af2c9ca314610140578063b8e9f0381461015c578063d910d86b1461017a578063ddf80166146101aa578063f2fde38b146101c6578063fdff9b4d146101e2576100a9565b80633f185b6c146100ae5780635afa5036146100ca578063715018a6146100fa5780638da5cb5b146101045780639def2d8914610122575b600080fd5b6100c860048036038101906100c3919061084c565b610212565b005b6100e460048036038101906100df919061084c565b610300565b6040516100f19190610894565b60405180910390f35b610102610320565b005b61010c610334565b60405161011991906108be565b60405180910390f35b61012a61035d565b60405161013791906108f2565b60405180910390f35b61015a60048036038101906101559190610939565b610363565b005b6101646103c6565b6040516101719190610a09565b60405180910390f35b610194600480360381019061018f9190610a57565b610454565b6040516101a191906108be565b60405180910390f35b6101c460048036038101906101bf919061084c565b610493565b005b6101e060048036038101906101db919061084c565b6105fc565b005b6101fc60048036038101906101f7919061084c565b61067f565b6040516102099190610894565b60405180910390f35b60011515600460003373ffffffffffffffffffffffffffffffffffffffff1673ffffffffffffffffffffffffffffffffffffffff16815260200190815260200160002060009054906101000a900460ff161515146102a5576040517f08c379a000000000000000000000000000000000000000000000000000000000815260040161029c90610af6565b60405180910390fd5b6000600560008373ffffffffffffffffffffffffffffffffffffffff1673ffffffffffffffffffffffffffffffffffffffff16815260200190815260200160002060006101000a81548160ff02191690831515021790555050565b60056020528060005260406000206000915054906101000a900460ff1681565b61032861069f565b610332600061071d565b565b60008060009054906101000a900473ffffffffffffffffffffffffffffffffffffffff16905090565b60015481565b61036b61069f565b80600460008473ffffffffffffffffffffffffffffffffffffffff1673ffffffffffffffffffffffffffffffffffffffff16815260200190815260200160002060006101000a81548160ff0219169083151502179055505050565b600380546103d390610b45565b80601f01602080910402602001604051908101604052809291908181526020018280546103ff90610b45565b801561044c5780601f106104215761010080835404028352916020019161044c565b820191906000526020600020905b81548152906001019060200180831161042f57829003601f168201915b505050505081565b6002818154811061046457600080fd5b906000526020600020016000915054906101000a900473ffffffffffffffffffffffffffffffffffffffff1681565b60011515600460003373ffffffffffffffffffffffffffffffffffffffff1673ffffffffffffffffffffffffffffffffffffffff16815260200190815260200160002060009054906101000a900460ff16151514610526576040517f08c379a000000000000000000000000000000000000000000000000000000000815260040161051d90610af6565b60405180910390fd5b6001600560008373ffffffffffffffffffffffffffffffffffffffff1673ffffffffffffffffffffffffffffffffffffffff16815260200190815260200160002060006101000a81548160ff0219169083151502179055506002819080600181540180825580915050600190039060005260206000200160009091909190916101000a81548173ffffffffffffffffffffffffffffffffffffffff021916908373ffffffffffffffffffffffffffffffffffffffff160217905550600160008154809291906105f490610ba5565b919050555050565b61060461069f565b600073ffffffffffffffffffffffffffffffffffffffff168173ffffffffffffffffffffffffffffffffffffffff1603610673576040517f08c379a000000000000000000000000000000000000000000000000000000000815260040161066a90610c5f565b60405180910390fd5b61067c8161071d565b50565b60046020528060005260406000206000915054906101000a900460ff1681565b6106a76107e1565b73ffffffffffffffffffffffffffffffffffffffff166106c5610334565b73ffffffffffffffffffffffffffffffffffffffff161461071b576040517f08c379a000000000000000000000000000000000000000000000000000000000815260040161071290610ccb565b60405180910390fd5b565b60008060009054906101000a900473ffffffffffffffffffffffffffffffffffffffff169050816000806101000a81548173ffffffffffffffffffffffffffffffffffffffff021916908373ffffffffffffffffffffffffffffffffffffffff1602179055508173ffffffffffffffffffffffffffffffffffffffff168173ffffffffffffffffffffffffffffffffffffffff167f8be0079c531659141344cd1fd0a4f28419497f9722a3daafe3b4186f6b6457e060405160405180910390a35050565b600033905090565b600080fd5b600073ffffffffffffffffffffffffffffffffffffffff82169050919050565b6000610819826107ee565b9050919050565b6108298161080e565b811461083457600080fd5b50565b60008135905061084681610820565b92915050565b600060208284031215610862576108616107e9565b5b600061087084828501610837565b91505092915050565b60008115159050919050565b61088e81610879565b82525050565b60006020820190506108a96000830184610885565b92915050565b6108b88161080e565b82525050565b60006020820190506108d360008301846108af565b92915050565b6000819050919050565b6108ec816108d9565b82525050565b600060208201905061090760008301846108e3565b92915050565b61091681610879565b811461092157600080fd5b50565b6000813590506109338161090d565b92915050565b600080604083850312156109505761094f6107e9565b5b600061095e85828601610837565b925050602061096f85828601610924565b9150509250929050565b600081519050919050565b600082825260208201905092915050565b60005b838110156109b3578082015181840152602081019050610998565b60008484015250505050565b6000601f19601f8301169050919050565b60006109db82610979565b6109e58185610984565b93506109f5818560208601610995565b6109fe816109bf565b840191505092915050565b60006020820190508181036000830152610a2381846109d0565b905092915050565b610a34816108d9565b8114610a3f57600080fd5b50565b600081359050610a5181610a2b565b92915050565b600060208284031215610a6d57610a6c6107e9565b5b6000610a7b84828501610a42565b91505092915050565b7f596f7520617265206e6f742061206d616e61676572206f66207468697320617560008201527f74686f7269747921000000000000000000000000000000000000000000000000602082015250565b6000610ae0602883610984565b9150610aeb82610a84565b604082019050919050565b60006020820190508181036000830152610b0f81610ad3565b9050919050565b7f4e487b7100000000000000000000000000000000000000000000000000000000600052602260045260246000fd5b60006002820490506001821680610b5d57607f821691505b602082108103610b7057610b6f610b16565b5b50919050565b7f4e487b7100000000000000000000000000000000000000000000000000000000600052601160045260246000fd5b6000610bb0826108d9565b91507fffffffffffffffffffffffffffffffffffffffffffffffffffffffffffffffff8203610be257610be1610b76565b5b600182019050919050565b7f4f776e61626c653a206e6577206f776e657220697320746865207a65726f206160008201527f6464726573730000000000000000000000000000000000000000000000000000602082015250565b6000610c49602683610984565b9150610c5482610bed565b604082019050919050565b60006020820190508181036000830152610c7881610c3c565b9050919050565b7f4f776e61626c653a2063616c6c6572206973206e6f7420746865206f776e6572600082015250565b6000610cb5602083610984565b9150610cc082610c7f565b602082019050919050565b60006020820190508181036000830152610ce481610ca8565b905091905056fea2646970667358221220dc37b21a338d2d68bf7bebb3a253b3d410294613774e80050645fffe922decd964736f6c63430008130033",
  "immutableReferences": {},
  "source": "// SPDX-License-Identifier: MIT\npragma solidity >=0.4.22 <0.9.0;\n\nimport \"@openzeppelin/contracts/access/Ownable.sol\";\n\ncontract Certifier is Ownable{\n  uint256 public certified=0;\n  address[] public certifiedProducers;\n\n  string public certifierName;\n  mapping(address=>bool) public managers;\n  mapping(address=>bool) public isCertified;\n  \n\n  constructor() public{\n  }\n\n  function editManager(address managerAddress, bool isManager) public onlyOwner{\n    managers[managerAddress]=isManager;\n  }\n\n  function addProducer(address producerAddress) public{\n    require(managers[msg.sender]==true,\"You are not a manager of this authority!\");\n    isCertified[producerAddress]=true;\n    certifiedProducers.push(producerAddress);\n    certified++;\n  }\n\n  function removeProducer(address producerAddress) public {\n    require(managers[msg.sender]==true,\"You are not a manager of this authority!\");\n    isCertified[producerAddress]=false;\n  }\n\n}\n",
  "sourcePath": "/Users/paulpou/projects/HackTM2023/certifier/contracts/Certifier.sol",
  "compiler": {
    "name": "solc",
    "version": "0.8.19+commit.7dd6d404.Emscripten.clang"
  },
  "schemaVersion": "3.4.13",
  "updatedAt": "2023-05-13T20:51:24.072Z",
  "devdoc": {
    "kind": "dev",
    "methods": {
      "owner()": {
        "details": "Returns the address of the current owner."
      },
      "renounceOwnership()": {
        "details": "Leaves the contract without owner. It will not be possible to call `onlyOwner` functions anymore. Can only be called by the current owner. NOTE: Renouncing ownership will leave the contract without an owner, thereby removing any functionality that is only available to the owner."
      },
      "transferOwnership(address)": {
        "details": "Transfers ownership of the contract to a new account (`newOwner`). Can only be called by the current owner."
      }
    },
    "version": 1
  },
  "userdoc": {
    "kind": "user",
    "methods": {},
    "version": 1
  }
}